:100000000C942A000C943C000C943C000C943C0092
:100010000C943C000C943C000C943C000C943C0070
:100020000C943C000C9446000C943C000C943C0056
:100030000C943C000C943C000C943C000C943C0050
:100040000C943C000C943C000C943C000C943C0040
:100050000C943C0011241FBECFE5D4E0DEBFCDBF21
:1000600010E0A0E6B0E001C01D92A236B107E1F7B2
:100070000E94A0000C94B6000C94000085E083BFA1
:1000800088E582BF89B7816089BF08951F920F926A
:100090000FB60F9211242F933F934F935F936F935B
:1000A0007F938F939F93AF93BF93EF93FF9388E5D5
:1000B00082BF0E949B008091600090916100019638
:1000C0009093610080936000809160009091610046
:1000D0008034910529F41092610010926000A89577
:1000E000FF91EF91BF91AF919F918F917F916F9110
:1000F0005F914F913F912F910F900FBE0F901F90E6
:100100001895D19AD99AD29ADA9AD098D89A08950D
:1001100020E032E048EB50E08BB383278BBB80EDCF
:1001200097E0FA013197F1F70197D9F72F5F263061
:1001300099F7D99A08958BB394E089278BBB0895DA
:100140000E9481000E9488000E943E002FE088E10A
:1001500090E00FB6F894A89581BD0FBE21BD7894AC
:10016000C899FECF19BEC89BFECFFACFF894FFCF37
:00000001FF
