:100000000C942A000C943F000C943F000C943F0089
:100010000C943F000C943F000C943F000C943F0064
:100020000C943F000C943F000C943F000C94AB01E7
:100030000C943F000C943F000C943F000C943F0044
:100040000C943F000C943F000C943F000C943F0034
:100050000C943F0011241FBECFE5D4E0DEBFCDBF1E
:1000600011E0A0E6B0E0E2E9FCE002C005900D92EC
:10007000A839B107D9F70E94DC010C9447060C940B
:100080000000D098D89AD198D99A0895C29A82E05F
:100090008A95F1F7C2980895BC9ABD9ABE9ABF9A04
:1000A0000895BC98BD98BE98BF980895C498C59807
:1000B000C698C7980895C49AC59AC69AC79A0895CB
:1000C0001F93182F662311F0C09A01C0C098C198E1
:1000D0000E944C000E94560017FDC79A16FDC69A52
:1000E00015FDC59A14FDC49AC29A82E08A95F1F76B
:1000F000C2980E94560013FDC79A12FDC69A11FDC0
:10010000C59A10FDC49AC29A82E08A95F1F7C29806
:100110000E945B001F910895882311F0C09A01C0CE
:10012000C098C19A0E945100C29A82E08A95F1F764
:10013000B49B02C090E101C090E0B5999062B6997D
:100140009064B7999068C29882E0282F2A95F1F7B9
:10015000C29A8A95F1F7B4999160B5999260B6996F
:100160009460B7999860C298892F089580E00E94A2
:100170008C0087FDFBCF89E08A95F1F780E00E9433
:100180008C0008951F93182F0E94B600812F60E005
:100190000E9460001F9108951F93182F0E94B600BF
:1001A000812F61E00E9460001F910895662311F481
:1001B000805801C080540E94C20008950E94B60079
:1001C00090E0089581E00E94C200089582E00E94BC
:1001D000C20008951F93182F0E94B6001A3049F4E8
:1001E000803410F080E001C080E480580E94C2009A
:1001F00004C0812F61E00E9460001F910895CF9399
:10020000DF93EC0102C00E94EA0089918823D9F7AC
:10021000DF91CF910895CF93DF93EA010E94D6003A
:1002200002C00E94EA0089918823D9F7DF91CF911B
:100230000895CF93DF93EC0102C00E94EA00FE0113
:10024000219684918823C9F7DF91CF910895B89AB8
:10025000B99ABA9A0E944C0083E393E70197F1F7A9
:10026000C49AC59AC29A92E0892F8A95F1F7C298EA
:10027000E0E0F4E23197F1F7C29A892F8A95F1F71D
:10028000C2988DE9282F2A95F1F7C29A292F2A952D
:10029000F1F7C298282F2A95F1F7C498C29A9A9537
:1002A000F1F7C2988A95F1F788E20E94C20088E0CF
:1002B0000E94C2000E94E20086E00E94C2008CE020
:1002C0000E94C2000895FF920F931F93CF93DF9374
:1002D0008C01F62E0E94D600E80104C080E20E9444
:1002E000EA002196C031D105CCF3802F6F2D0E94FA
:1002F000D600DF91CF911F910F91FF9008958FE26B
:1003000089B910BC88E98AB986E880BD08958CB99E
:100310005D9BFECF0895FC0104C08CB95D9BFECFB0
:10032000319680818823C9F7089520E0982F92950F
:100330009F709A3028F4905D9CB95D9BFECF04C0FD
:10034000995C9CB95D9BFECF2F5F223019F082959E
:10035000807FECCF08951F920F920FB60F92112459
:100360008F938BB18CB18F910F900FBE0F901F9018
:10037000189583B78C6783BF089590E0AA2797FDEF
:10038000A095BA2FBC01CD010E94C20320E030E04D
:100390004FE753E40E941C0220E030E048EC52E4B6
:1003A0000E9416030E9420046CBF08950E94410021
:1003B0000E942701BB9A0895CF93DF930E94D60134
:1003C000789480E060E040E650E00E940B0180E01D
:1003D00061E049E650E00E940B0183B78C6783BF60
:1003E00080E061E04EE650E00E940B0184E10E9453
:1003F000BD01C0E0D4EBC8990EC0CE010197F1F762
:10040000C89BFECF80E061E04EE650E00E940B0109
:1004100084E10E94BD01C999EECFCE010197F1F7A9
:10042000C99BFECF80E061E04FE750E00E940B01E6
:1004300080E50E94BD01DFCFA0E2B0E0E2E2F2E0A1
:100440000C94100669837A838B839C832D833E836F
:100450004F835887CE010196BE01675F7F4F0E9490
:100460009805CE010596BE016F5E7F4F0E949805EC
:100470009985923088F089898230C8F0943019F4D7
:10048000823051F404C0843029F4923081F480E940
:1004900090E0C6C0923049F420E09A858A8998138A
:1004A00021E02A87CE010996BBC0823049F420E0C2
:1004B0009A858A89981321E02A8BCE014196B0C093
:1004C0002D843E844F8458886D887E888F88988CD0
:1004D000EE24FF248701AA24BB24650140E050E0FC
:1004E00060E070E0E0E0F0E0C10181709070892B85
:1004F000E9F0E60CF71C081D191D9A01AB012A0D45
:100500003B1D4C1D5D1D80E090E0A0E0B0E0E614D6
:10051000F7040805190520F481E090E0A0E0B0E0C0
:10052000BA01A901480F591F6A1F7B1FAA0CBB1CE7
:10053000CC1CDD1C97FE08C081E090E0A0E0B0E09C
:10054000A82AB92ACA2ADB2A3196E032F10549F0F5
:10055000660C771C881C991C5694479437942794F2
:10056000C3CFFA85EA892B893C898B859C85280F26
:10057000391F2E5F3F4F17C0CA0181709070892BC1
:1005800061F016950795F794E79480E090E0A0E07D
:10059000B0E8E82AF92A0A2B1B2B76956795579520
:1005A00047952F5F3F4F77FDE7CF0CC0440F551F96
:1005B000661F771F17FD4160EE0CFF1C001F111F07
:1005C00021503040403090E0590790E0690790E4B6
:1005D000790760F32B8F3C8FDB01CA018F77907016
:1005E000A070B07080349105A105B10561F447FD9C
:1005F0000AC0E114F1040105110529F0405C5F4FC8
:100600006F4F7F4F40781A8EFE1711F081E08A8F6E
:100610004D8F5E8F6F8F78A383E0898FCE014996CF
:100620000E94C304A096E2E10C942C06A8E1B0E07D
:10063000ECE1F3E00C94180669837A838B839C8346
:100640002D833E834F835887B9E0EB2EF12CEC0EBF
:10065000FD1ECE010196B7010E9498058E010F5E26
:100660001F4FCE010596B8010E94980529852230BA
:1006700008F47EC03989323010F4B8017CC08A8514
:100680009A8989278A87243011F0223031F4231780
:1006900009F06EC060E970E06EC0343039F41D8638
:1006A0001E861F86188A1C861B8604C0323021F4E1
:1006B00084E08987B7015FC02B853C858B899C8945
:1006C000281B390B3C872B87ED84FE840F85188906
:1006D000AD88BE88CF88D88CEA14FB040C051D05B4
:1006E00040F4EE0CFF1C001F111F215030403C87CE
:1006F0002B8720E030E040E050E080E090E0A0E098
:10070000B0E460E070E0EA14FB040C051D0540F065
:10071000282B392B4A2B5B2BEA18FB080C091D09E7
:10072000B695A79597958795EE0CFF1C001F111F96
:100730006F5F7F4F6F31710531F7DA01C9018F7734
:100740009070A070B07080349105A105B10561F47E
:1007500027FD0AC0E114F1040105110529F0205C10
:100760003F4F4F4F5F4F20782D873E874F87588BE5
:10077000BE01675F7F4FCB010E94C3046896EAE029
:100780000C943406A8E0B0E0E8ECF3E00C94190611
:100790009B01AC0183E08983DA01C9018827B7FD99
:1007A00083959927AA27BB27B82E21153105410526
:1007B000510519F482E089833AC08823A9F02030DA
:1007C00080E0380780E0480780E8580729F460E0B7
:1007D00070E080E09FEC30C0EE24FF248701E21A35
:1007E000F30A040B150B02C079018A018EE1C82EB1
:1007F000D12CDC82CB82ED82FE820F831887C80168
:10080000B7010E94740401971816190684F4082E83
:1008100004C0EE0CFF1C001F111F0A94D2F7ED82DA
:10082000FE820F831887C81AD90ADC82CB82BA826B
:10083000CE0101960E94C3042896E9E00C94350687
:10084000ACE0B0E0E6E2F4E00C94200669837A8341
:100850008B839C83CE010196BE016B5F7F4F0E940C
:1008600098058D81823061F1823050F1843021F41D
:100870008E81882351F12EC02F81388537FD20C00D
:100880006E812F3131051CF06623F9F023C08EE113
:1008900090E0821B930B29853A854B855C8504C0CB
:1008A00056954795379527958A95D2F76623B1F0E7
:1008B00050954095309521953F4F4F4F5F4F0EC05B
:1008C00020E030E040E050E009C02FEF3FEF4FEF75
:1008D0005FE704C020E030E040E050E8B901CA0121
:1008E0002C96E2E00C943C06EF92FF920F931F933C
:1008F0007B018C0180E0E81680E0F80681E00807C3
:1009000080E0180788F48FEFE816F104010511055F
:1009100031F028F088E090E0A0E0B0E017C080E07F
:1009200090E0A0E0B0E012C080E0E81680E0F806B9
:1009300080E0080781E0180728F088E190E0A0E057
:10094000B0E004C080E190E0A0E0B0E020E230E060
:1009500040E050E0281B390B4A0B5B0B04C0169596
:100960000795F794E7948A95D2F7F701E856FF4F79
:100970008081281B310941095109C9011F910F913B
:10098000FF90EF900895DF92EF92FF920F931F93E5
:10099000FC01E480F58006811781D180808182305E
:1009A00048F480E090E0A0E1B0E0E82AF92A0A2BC0
:1009B0001B2BA5C0843009F49FC0823021F4EE24A3
:1009C000FF24870105C0E114F1040105110519F4A4
:1009D000E0E0F0E096C0628173819FEF62387907B2
:1009E0000CF05BC022E83FEF261B370B2A313105A4
:1009F0002CF020E030E040E050E02AC0B801A70130
:100A0000022E04C076956795579547950A94D2F7BC
:100A100081E090E0A0E0B0E004C0880F991FAA1F19
:100A2000BB1F2A95D2F70197A109B1098E219F21F9
:100A3000A023B1230097A105B10521F081E090E04A
:100A4000A0E0B0E09A01AB01282B392B4A2B5B2B9D
:100A5000DA01C9018F779070A070B0708034910571
:100A6000A105B10539F427FF09C0205C3F4F4F4F66
:100A70005F4F04C0215C3F4F4F4F5F4FE0E0F0E01D
:100A80002030A0E03A07A0E04A07A0E45A0710F09F
:100A9000E1E0F0E079018A0127C06038710564F572
:100AA000FB01E158FF4FD801C7018F779070A0700C
:100AB000B07080349105A105B10539F4E7FE0DC091
:100AC00080E490E0A0E0B0E004C08FE390E0A0E01C
:100AD000B0E0E80EF91E0A1F1B1F17FF05C0169590
:100AE0000795F794E794319687E016950795F79464
:100AF000E7948A95D1F705C0EE24FF248701EFEF34
:100B0000F0E06E2F679566276795902F9F77D794B3
:100B1000DD24D7948E2F8695492F462B582F5D299B
:100B2000B701CA011F910F91FF90EF90DF900895D8
:100B3000FC01DB01408151812281622F6F7770E0DF
:100B4000221F2227221F9381892F880F822B282F73
:100B500030E0991F9927991F11969C9311972115A1
:100B60003105A9F5411551056105710511F482E0C2
:100B700037C082E89FEF13969C938E9312979A0149
:100B8000AB0167E0220F331F441F551F6A95D1F751
:100B900083E08C930DC0220F331F441F551F129604
:100BA0008D919C911397019713969C938E93129716
:100BB000203080E0380780E0480780E4580758F389
:100BC00014962D933D934D935C93179708952F3F63
:100BD000310579F4411551056105710519F484E079
:100BE0008C93089564FF03C081E08C9312C01C9223
:100BF00010C02F57304013963C932E93129783E0EA
:100C00008C9387E0440F551F661F771F8A95D1F795
:100C1000706414964D935D936D937C93179708952C
:100C20002F923F924F925F926F927F928F929F92FC
:100C3000AF92BF92CF92DF92EF92FF920F931F93EA
:100C4000CF93DF93CDB7DEB7CA1BDB0B0FB6F8949B
:100C5000DEBF0FBECDBF09942A88398848885F84DB
:100C60006E847D848C849B84AA84B984C884DF804C
:100C7000EE80FD800C811B81AA81B981CE0FD11D30
:100C80000FB6F894DEBF0FBECDBFED010895F89406
:020C9000FFCF94
:100C9200466173742050574D0076303031006475D0
:100CA2007479206379636C65203D203230250064BD
:100CB200757479206379636C65203D203830250096
:100CC2000000000000000000000102020303030311
:100CD20004040404040404040505050505050505CA
:100CE20005050505050505050606060606060606AA
:100CF2000606060606060606060606060606060692
:100D02000606060606060606070707070707070779
:100D12000707070707070707070707070707070761
:100D22000707070707070707070707070707070751
:100D32000707070707070707070707070707070741
:100D42000707070707070707080808080808080829
:100D52000808080808080808080808080808080811
:100D62000808080808080808080808080808080801
:100D720008080808080808080808080808080808F1
:100D820008080808080808080808080808080808E1
:100D920008080808080808080808080808080808D1
:100DA20008080808080808080808080808080808C1
:100DB20008080808080808080808080808080808B1
:080DC2000808080808080808E9
:00000001FF
