:100000000C942A000C945D000C9447000C9447005B
:100010000C9447000C9447000C9447000C94470044
:100020000C9447000C9447000C9447000C94470034
:100030000C9447000C9447000C9447000C94470024
:100040000C9447000C9447000C9447000C94470014
:100050000C94470011241FBECFE5D4E0DEBFCDBF16
:1000600010E0A0E6B0E0ECE0F1E002C005900D92F7
:10007000A037B107D9F710E0A0E7B0E001C01D92AA
:10008000A137B107E1F70E9477000C9484000C942B
:100090000000E82FF0E0EF70F070E05AFF4F808131
:1000A0008BBB08951BBA08958A98929A85B783608E
:1000B00085BF8BB780648BBF08951F920F920FB6D8
:1000C0000F9211248F93809170008F5F8093700046
:1000D0008F910F900FBE0F901F9018958F98979A41
:1000E0008FEF8ABB0E9452000E94540008950E9424
:1000F0006E007894879902C0109270008091700011
:0C0100008F700E944900F6CFF894FFCFEA
:10010C003F065B4F666D7D077F6F777C395E79713B
:00000001FF
