:100000000C942A000C943C000C943C000C943C0092
:100010000C943C000C943C000C943C000C943C0070
:100020000C943C000C944B000C943C000C943C0051
:100030000C943C000C943C000C943C000C943C0050
:100040000C943C000C943C000C943C000C943C0040
:100050000C943C0011241FBECFE5D4E0DEBFCDBF21
:1000600010E0A0E6B0E001C01D92A236B107E1F7B2
:100070000E9489000C948D000C9400008BB391E0D9
:1000800089278BBB089585E083BF8FE182BF89B745
:10009000816089BF08951F920F920FB60F921124AD
:1000A0002F933F934F935F936F937F938F939F9380
:1000B000AF93BF93EF93FF938FE182BF8091600076
:1000C000909161000196909361008093600080910F
:1000D000600090916100409731F41092610010929D
:1000E00060000E943E00FF91EF91BF91AF919F9100
:1000F0008F917F916F915F914F913F912F910F90D1
:100100000FBE0F901F901895D09AD89A0E94430066
:0E01100008950E9484007894FFCFF894FFCFEA
:00000001FF
