:100000000C942A000C943F000C943F000C943F0089
:100010000C943F000C943F000C943F000C943F0064
:100020000C943F000C943F000C943F000C94530040
:100030000C943F000C943F000C943F000C943F0044
:100040000C943F000C943F000C943F000C943F0034
:100050000C943F0011241FBECFE5D4E0DEBFCDBF1E
:1000600010E0A0E6B0E0E2E2F1E002C005900D92FF
:10007000AA37B107D9F70E9478000C948F000C942E
:10008000000087E089B910BC88E98AB986E880BD9C
:100090000895FC0104C08CB95D9BFECF3196808130
:1000A0008823C9F708951F920F920FB60F9211245B
:1000B0008F939F938BB19CB1887171F4892F815676
:1000C0008A3110F4905205C0892F81548A3108F486
:1000D000905E9CB95D9BFECF9F918F910F900FBE5C
:1000E0000F901F901895D098D89A0E9441000895BB
:1000F000CF93DF930E9473007894C8EBD0E0C89947
:10010000FECF80917700909178000E94490088E8A6
:1001100093E1FE013197F1F70197D9F7F0CFF89409
:02012000FFCF0F
:1001220041544D45474131362075617274207465E2
:0A013200737420210D0A0060000024
:00000001FF
